{
  "_format": "hh-sol-artifact-1",
  "contractName": "Swisstronik",
  "sourceName": "contracts/Hello_swtr.sol",
  "abi": [
    {
      "inputs": [],
      "name": "getMessage",
      "outputs": [
        {
          "internalType": "string",
          "name": "",
          "type": "string"
        }
      ],
      "stateMutability": "view",
      "type": "function"
    },
    {
      "inputs": [
        {
          "internalType": "string",
          "name": "_message",
          "type": "string"
        }
      ],
      "name": "initialize",
      "outputs": [],
      "stateMutability": "nonpayable",
      "type": "function"
    },
    {
      "inputs": [
        {
          "internalType": "string",
          "name": "_message",
          "type": "string"
        }
      ],
      "name": "setMessage",
      "outputs": [],
      "stateMutability": "nonpayable",
      "type": "function"
    }
  ],
  "bytecode": "0x608060405234801561001057600080fd5b506106b6806100206000396000f3fe608060405234801561001057600080fd5b50600436106100415760003560e01c8063368b877214610046578063ce6d41de14610062578063f62d188814610080575b600080fd5b610060600480360381019061005b91906102ae565b61009c565b005b61006a6100af565b6040516100779190610376565b60405180910390f35b61009a600480360381019061009591906102ae565b610141565b005b80600090816100ab91906105ae565b5050565b6060600080546100be906103c7565b80601f01602080910402602001604051908101604052809291908181526020018280546100ea906103c7565b80156101375780601f1061010c57610100808354040283529160200191610137565b820191906000526020600020905b81548152906001019060200180831161011a57829003601f168201915b5050505050905090565b806000908161015091906105ae565b5050565b6000604051905090565b600080fd5b600080fd5b600080fd5b600080fd5b6000601f19601f8301169050919050565b7f4e487b7100000000000000000000000000000000000000000000000000000000600052604160045260246000fd5b6101bb82610172565b810181811067ffffffffffffffff821117156101da576101d9610183565b5b80604052505050565b60006101ed610154565b90506101f982826101b2565b919050565b600067ffffffffffffffff82111561021957610218610183565b5b61022282610172565b9050602081019050919050565b82818337600083830152505050565b600061025161024c846101fe565b6101e3565b90508281526020810184848401111561026d5761026c61016d565b5b61027884828561022f565b509392505050565b600082601f83011261029557610294610168565b5b81356102a584826020860161023e565b91505092915050565b6000602082840312156102c4576102c361015e565b5b600082013567ffffffffffffffff8111156102e2576102e1610163565b5b6102ee84828501610280565b91505092915050565b600081519050919050565b600082825260208201905092915050565b60005b83811015610331578082015181840152602081019050610316565b60008484015250505050565b6000610348826102f7565b6103528185610302565b9350610362818560208601610313565b61036b81610172565b840191505092915050565b60006020820190508181036000830152610390818461033d565b905092915050565b7f4e487b7100000000000000000000000000000000000000000000000000000000600052602260045260246000fd5b600060028204905060018216806103df57607f821691505b6020821081036103f2576103f1610398565b5b50919050565b60008190508160005260206000209050919050565b60006020601f8301049050919050565b600082821b905092915050565b60006008830261045a7fffffffffffffffffffffffffffffffffffffffffffffffffffffffffffffffff8261041d565b610464868361041d565b95508019841693508086168417925050509392505050565b6000819050919050565b6000819050919050565b60006104ab6104a66104a18461047c565b610486565b61047c565b9050919050565b6000819050919050565b6104c583610490565b6104d96104d1826104b2565b84845461042a565b825550505050565b600090565b6104ee6104e1565b6104f98184846104bc565b505050565b5b8181101561051d576105126000826104e6565b6001810190506104ff565b5050565b601f82111561056257610533816103f8565b61053c8461040d565b8101602085101561054b578190505b61055f6105578561040d565b8301826104fe565b50505b505050565b600082821c905092915050565b600061058560001984600802610567565b1980831691505092915050565b600061059e8383610574565b9150826002028217905092915050565b6105b7826102f7565b67ffffffffffffffff8111156105d0576105cf610183565b5b6105da82546103c7565b6105e5828285610521565b600060209050601f8311600181146106185760008415610606578287015190505b6106108582610592565b865550610678565b601f198416610626866103f8565b60005b8281101561064e57848901518255600182019150602085019450602081019050610629565b8683101561066b5784890151610667601f891682610574565b8355505b6001600288020188555050505b50505050505056fea2646970667358221220302704c749310d748876b3b487d1488b50e9b4f8580c820dc9f6d470f03ae11b64736f6c63430008140033",
  "linkReferences": {},
  "deployedLinkReferences": {}
}